{
  "contractName": "Conference",
  "abi": [
    {
      "constant": true,
      "inputs": [
        {
          "name": "",
          "type": "address"
        }
      ],
      "name": "registrantsPaid",
      "outputs": [
        {
          "name": "",
          "type": "uint256"
        }
      ],
      "payable": false,
      "stateMutability": "view",
      "type": "function"
    },
    {
      "constant": true,
      "inputs": [],
      "name": "organizer",
      "outputs": [
        {
          "name": "",
          "type": "address"
        }
      ],
      "payable": false,
      "stateMutability": "view",
      "type": "function"
    },
    {
      "constant": true,
      "inputs": [],
      "name": "quota",
      "outputs": [
        {
          "name": "",
          "type": "uint256"
        }
      ],
      "payable": false,
      "stateMutability": "view",
      "type": "function"
    },
    {
      "constant": true,
      "inputs": [],
      "name": "numRegistrants",
      "outputs": [
        {
          "name": "",
          "type": "uint256"
        }
      ],
      "payable": false,
      "stateMutability": "view",
      "type": "function"
    },
    {
      "inputs": [],
      "payable": false,
      "stateMutability": "nonpayable",
      "type": "constructor"
    },
    {
      "anonymous": false,
      "inputs": [
        {
          "indexed": false,
          "name": "_from",
          "type": "address"
        },
        {
          "indexed": false,
          "name": "_amount",
          "type": "uint256"
        }
      ],
      "name": "Deposit",
      "type": "event"
    },
    {
      "anonymous": false,
      "inputs": [
        {
          "indexed": false,
          "name": "_to",
          "type": "address"
        },
        {
          "indexed": false,
          "name": "_aount",
          "type": "uint256"
        }
      ],
      "name": "Refund",
      "type": "event"
    },
    {
      "constant": false,
      "inputs": [],
      "name": "buyTicket",
      "outputs": [
        {
          "name": "success",
          "type": "bool"
        }
      ],
      "payable": true,
      "stateMutability": "payable",
      "type": "function"
    },
    {
      "constant": false,
      "inputs": [
        {
          "name": "newquota",
          "type": "uint256"
        }
      ],
      "name": "changeQuota",
      "outputs": [],
      "payable": false,
      "stateMutability": "nonpayable",
      "type": "function"
    },
    {
      "constant": false,
      "inputs": [
        {
          "name": "recipient",
          "type": "address"
        },
        {
          "name": "amount",
          "type": "uint256"
        }
      ],
      "name": "refundTicket",
      "outputs": [],
      "payable": false,
      "stateMutability": "nonpayable",
      "type": "function"
    },
    {
      "constant": false,
      "inputs": [],
      "name": "destroy",
      "outputs": [],
      "payable": false,
      "stateMutability": "nonpayable",
      "type": "function"
    }
  ],
  "bytecode": "0x608060405234801561001057600080fd5b50336000806101000a81548173ffffffffffffffffffffffffffffffffffffffff021916908373ffffffffffffffffffffffffffffffffffffffff1602179055506101f46003819055506000600281905550610670806100716000396000f30060806040526004361061008e576000357c0100000000000000000000000000000000000000000000000000000000900463ffffffff16806313381fbf1461009357806361203265146100ea578063705099b91461014157806383197ef01461018e578063a977c71e146101a5578063cebe09c9146101d2578063ec3a6f73146101fd578063edca914c14610228575b600080fd5b34801561009f57600080fd5b506100d4600480360381019080803573ffffffffffffffffffffffffffffffffffffffff16906020019092919050505061024a565b6040518082815260200191505060405180910390f35b3480156100f657600080fd5b506100ff610262565b604051808273ffffffffffffffffffffffffffffffffffffffff1673ffffffffffffffffffffffffffffffffffffffff16815260200191505060405180910390f35b34801561014d57600080fd5b5061018c600480360381019080803573ffffffffffffffffffffffffffffffffffffffff16906020019092919080359060200190929190505050610287565b005b34801561019a57600080fd5b506101a3610460565b005b3480156101b157600080fd5b506101d0600480360381019080803590602001909291905050506104f1565b005b3480156101de57600080fd5b506101e7610557565b6040518082815260200191505060405180910390f35b34801561020957600080fd5b5061021261055d565b6040518082815260200191505060405180910390f35b610230610563565b604051808215151515815260200191505060405180910390f35b60016020528060005260406000206000915090505481565b6000809054906101000a900473ffffffffffffffffffffffffffffffffffffffff1681565b60008060009054906101000a900473ffffffffffffffffffffffffffffffffffffffff1673ffffffffffffffffffffffffffffffffffffffff163373ffffffffffffffffffffffffffffffffffffffff161415156102e45761045b565b81600160008573ffffffffffffffffffffffffffffffffffffffff1673ffffffffffffffffffffffffffffffffffffffff16815260200190815260200160002054141561045a57309050818173ffffffffffffffffffffffffffffffffffffffff1631101515610459578273ffffffffffffffffffffffffffffffffffffffff166108fc839081150290604051600060405180830381858888f19350505050158015610394573d6000803e3d6000fd5b506000600160008573ffffffffffffffffffffffffffffffffffffffff1673ffffffffffffffffffffffffffffffffffffffff16815260200190815260200160002081905550600260008154809291906001900391905055507fbb28353e4598c3b9199101a66e0989549b659a59a54d2c27fbb183f1932c8e6d8383604051808373ffffffffffffffffffffffffffffffffffffffff1673ffffffffffffffffffffffffffffffffffffffff1681526020018281526020019250505060405180910390a15b5b5b505050565b6000809054906101000a900473ffffffffffffffffffffffffffffffffffffffff1673ffffffffffffffffffffffffffffffffffffffff163373ffffffffffffffffffffffffffffffffffffffff1614156104ef576000809054906101000a900473ffffffffffffffffffffffffffffffffffffffff1673ffffffffffffffffffffffffffffffffffffffff16ff5b565b6000809054906101000a900473ffffffffffffffffffffffffffffffffffffffff1673ffffffffffffffffffffffffffffffffffffffff163373ffffffffffffffffffffffffffffffffffffffff1614151561054c57610554565b806003819055505b50565b60035481565b60025481565b600060035460025410151561057b5760009050610641565b34600160003373ffffffffffffffffffffffffffffffffffffffff1673ffffffffffffffffffffffffffffffffffffffff168152602001908152602001600020819055506002600081548092919060010191905055507fe1fffcc4923d04b559f4d29a8bfc6cda04eb5b0d3c460751c2402c5c5cc9109c3334604051808373ffffffffffffffffffffffffffffffffffffffff1673ffffffffffffffffffffffffffffffffffffffff1681526020018281526020019250505060405180910390a1600190505b905600a165627a7a72305820b102fb6ae7ea4b5fd8c0bd4717631cc1b7b42e0efb8daf63457b0076975974360029",
  "source": "pragma solidity ^0.4.23;\n\ncontract Conference {\n\taddress public organizer;\n\tmapping (address => uint) public registrantsPaid;\n\tuint public numRegistrants;\n\tuint public quota;\n\n\t// modifier onlyOwner {\n\t// \trequire(\n\t// \t\tmsg.sender == organizer,\n\t// \t\t\"Only organizer can call this function.\"\n\t// \t)\n\t// }\n\n\tevent Deposit(address _from, uint _amount);\n\tevent Refund(address _to, uint _aount);\n\n\tconstructor() public {\n\t\torganizer = msg.sender;\n\t\tquota = 500;\n\t\tnumRegistrants = 0;\n\t}\n\n\tfunction buyTicket() payable public returns (bool success) {\n\t\tif (numRegistrants >= quota) { return false; }\n\t\tregistrantsPaid[msg.sender] = msg.value;\n\t\tnumRegistrants++;\n\t\tDeposit(msg.sender, msg.value);\n\t\treturn true;\n\t}\n\n\tfunction changeQuota(uint newquota) public {\n\t\tif (msg.sender != organizer) { return;}\n\t\tquota = newquota;\n\t}\n\n\tfunction refundTicket(address recipient, uint amount) public {\n\t\tif (msg.sender != organizer) { return; }\n\t\tif(registrantsPaid[recipient] == amount) {\n\t\t\taddress myAddress = this;\n\t\t\tif (myAddress.balance >= amount) {\n\t\t\t\trecipient.transfer(amount);\n\t\t\t\tregistrantsPaid[recipient] = 0;\n\t\t\t\tnumRegistrants--;\n\t\t\t\tRefund(recipient, amount);\n\t\t\t}\n\t\t}\n\t}\n\n\tfunction destroy() public {\n\t\tif (msg.sender == organizer) {\n\t\t\tselfdestruct(organizer);\n\t\t}\n\t}\n}",
  "sourcePath": "/root/Desktop/conference/contracts/Conference.sol",
  "compiler": {
    "name": "solc",
    "version": "0.4.24+commit.e67f0147.Emscripten.clang"
  },
  "schemaVersion": "2.0.0",
  "updatedAt": "2018-05-24T03:55:46.239Z"
}